:020000040000FA
:100000000C940C030C9434030C9434030C94CF1A0A
:100010000C94CF1A0C94CF1A0C9434030C94340320
:100020000C9434030C9434030C9434030C94340374
:100030000C9434030C9434030C9434030C94340364
:100040000C9412190C9434030C9482190C945C19BE
:100050000C9434030C9434030C9434030C94340344
:100060000C94B4190C94340300000000003E5B4F64
:100070005B3E3E6B4F6B3E1C3E7C3E1C183C7E3C08
:10008000181C577D571C1C5E7F5E1C00183C180016
:10009000FFE7C3E7FF0018241800FFE7DBE7FF30A6
:1000A000483A060E2629792926407F050507407F14
:1000B00005253F5A3CE73C5A7F3E1C1C08081C1C87
:1000C0003E7F14227F22145F5F005F5F06097F017D
:1000D0007F006689956A606060606094A2FFA29468
:1000E00008047E040810207E201008082A1C080836
:1000F0001C2A08081E101010100C1E0C1E0C303884
:100100003E3830060E3E0E06000000000000005F84
:1001100000000007000700147F147F14242A7F2AA0
:100120001223130864623649562050000807030062
:10013000001C2241000041221C002A1C7F1C2A08AE
:10014000083E080800807030000808080808000011
:1001500060600020100804023E5149453E00427F85
:10016000400072494949462141494D331814127FD4
:100170001027454545393C4A494931412111090774
:100180003649494936464949291E000014000000F5
:1001900040340000000814224114141414140041C7
:1001A00022140802015909063E415D594E7C121184
:1001B000127C7F494949363E414141227F414141BC
:1001C0003E7F494949417F090909013E4141517337
:1001D0007F0808087F00417F41002040413F017FA8
:1001E000081422417F404040407F021C027F7F0470
:1001F00008107F3E4141413E7F090909063E4151B9
:10020000215E7F09192946264949493203017F01A8
:10021000033F4040403F1F2040201F3F4038403FA9
:10022000631408146303047804036159494D4300BF
:100230007F4141410204081020004141417F0402F6
:10024000010204404040404000030708002054548D
:1002500078407F284444383844444428384444286B
:100260007F385454541800087E090218A4A49C78BE
:100270007F0804047800447D40002040403D007F1A
:100280001028440000417F40007C047804787C08FA
:100290000404783844444438FC18242418182424CE
:1002A00018FC7C08040408485454542404043F44B3
:1002B000243C4040207C1C2040201C3C4030403CE2
:1002C00044281028444C9090907C4464544C440042
:1002D00008364100000077000000413608000201A6
:1002E0000204023C2623263C1EA1A161123A404092
:1002F000207A38545455592155557941225454780F
:1003000042215554784020545579400C1E527212A7
:100310003955555559395454545939555454580030
:1003200000457C410002457D420001457C407D1234
:1003300011127DF0282528F07C5455450020545496
:100340007C547C0A097F4932494949323A44444441
:100350003A324A4848303A4141217A3A424020787C
:10036000009DA0A07D3D4242423D3D4040403D3C7D
:1003700024FF2424487E4943662B2FFC2F2BFF09A2
:1003800029F620C0887E0903205454794100004496
:100390007D413048484A32384040227A007A0A0A81
:1003A000727D0D19317D2629292F282629292926F4
:1003B00030484D4020380808080808080808382F39
:1003C00010C8ACBA2F102834FA00007B00000814C3
:1003D0002A142222142A14085500550055AA55AA99
:1003E00055AAFF55FF55FF000000FF00101010FF39
:1003F00000141414FF001010FF00FF1010F010F094
:10040000141414FC001414F700FF0000FF00FF1484
:1004100014F404FC141417101F10101F101F1414D0
:10042000141F00101010F0000000001F101010101A
:100430001F10101010F010000000FF10101010100E
:1004400010101010FF10000000FF140000FF00FF4C
:1004500000001F10170000FC04F4141417101714E8
:1004600014F404F40000FF00F7141414141414140A
:10047000F700F7141414171410101F101F1414147D
:10048000F4141010F010F000001F101F0000001FE7
:1004900014000000FC140000F010F01010FF10FF1A
:1004A000141414FF141010101F00000000F010FFAF
:1004B000FFFFFFFFF0F0F0F0F0FFFFFF0000000093
:1004C00000FFFF0F0F0F0F0F3844443844FC4A4A17
:1004D0004A347E02020606027E027E0263554941CC
:1004E000633844443C04407E201E2006027E020203
:1004F00099A5E7A5991C2A492A1C4C7201724C3017
:100500004A4D4D303048784830BC625A463D3E49ED
:100510004949007E0101017E2A2A2A2A2A44445F91
:10052000444440514A444040444A51400000FF0185
:1005300003E080FF000008086B6B08361236243693
:10054000060F090F060000181800000010100030F8
:1005500040FF0101001F01011E00191D1712003C80
:100560003C3C3C0000000000000103070F1F3F7FE0
:100570000080C0E0F0F8FCFE466F756E642066698E
:100580006E6765727072696E742073656E736F72D8
:100590002100322E20456E726F6C6C6D656E742E6C
:1005A00000312E20417474656E64616E63652E00A7
:1005B0004D61696E204D656E7500000000002400DD
:1005C00027002A00000000080002010000030407C1
:1005D00000000000000000000000000023002600D2
:1005E000290000000000250028002B00040404045A
:1005F00004040404020202020202030303030303CD
:1006000001020408102040800102040810200102A9
:1006100004081020471B562311241FBECFEFD8E03B
:10062000DEBFCDBF13E0A0E0B1E0EAE8FCE402C029
:1006300005900D92AA38B107D9F728E0AAE8B3E0EF
:1006400001C01D92A032B207E1F713E0CBE0D3E086
:1006500004C02197FE010E946025CA30D107C9F766
:100660000E94FD1C0C9438260C940000DF92EF923F
:10067000FF920F931F93CF93DF93EC0180914E0570
:1006800090914F056981DC01ED91FC910190F08121
:10069000E02D099580914E0590914F05DC01ED917B
:1006A000FC910190F081E02D6881099580914E05C3
:1006B00090914F05DC01ED91FC910190F081E02DCE
:1006C0006A81099580914E0590914F05DC01ED916D
:1006D000FC910190F081E02D6B81099580914E0590
:1006E00090914F05DC01ED91FC910190F081E02D9E
:1006F0006C81099580914E0590914F05DC01ED913B
:10070000FC910190F081E02D6D81099580914E055D
:1007100090914F05DC01ED91FC910190F081E02D6D
:100720006E8109950F8118850E5F1F4F80914E05D0
:1007300090914F05E12EFF24DC01ED91FC91019099
:10074000F081E02D6E2D099580914E0590914F0519
:10075000DC01ED91FC910190F081E02D602F099575
:100760000E0D1F2D111D8E81080F111DD12C809192
:100770004E0590914F05DC01ED91FC910190F081C7
:10078000E02DED2CF12C2F813885E216F30660F474
:10079000EC0EFD1ED70119966C910995F701818524
:1007A000080F111DD394E3CF612F099580914E0559
:1007B00090914F05DC01ED91FC910190F081E02DCD
:1007C000602FDF91CF911F910F91FF90EF90DF90FD
:1007D000099490E0FC01EC53FA4F2491FC01E050A5
:1007E000FA4F3491FC01E451FA4FE491EE23C9F041
:1007F000222339F0233001F1A8F4213019F12230FD
:1008000029F1F0E0EE0FFF1FEE51FA4FA591B491E0
:100810008FB7F894EC91611126C030953E233C933C
:100820008FBF08952730A9F02830C9F0243049F748
:10083000809180008F7D03C0809180008F778093AE
:100840008000DFCF84B58F7784BDDBCF84B58F7D0B
:10085000FBCF8091B0008F778093B000D2CF809192
:10086000B0008F7DF9CF3E2BDACFCF93DF9390E0AE
:10087000FC01E050FA4F249184519A4FFC0184917D
:100880008823D1F090E0880F991FFC01E654FA4FBD
:10089000A591B491FC01EE51FA4FC591D49161112B
:1008A0000EC09FB7F8948C91E22FE0958E238C9325
:1008B0002881E223E8839FBFDF91CF9108958FB70E
:1008C000F894EC91E22BEC938FBFF6CF3FB7F894FE
:1008D00080917B0490917C04A0917D04B0917E0472
:1008E00026B5A89B05C02F3F19F00196A11DB11D8B
:1008F0003FBFBA2FA92F982F8827BC01CD01620FC7
:10090000711D811D911D42E0660F771F881F991F81
:100910004A95D1F708958F929F92AF92BF92CF924E
:10092000DF92EF92FF924B015C010E9466046B0123
:100930007C010E9466046C197D098E099F09683E3E
:10094000734081059105A8F321E0821A9108A1085E
:10095000B10888EEC80E83E0D81EE11CF11C81149A
:100960009104A104B10429F7FF90EF90DF90CF909C
:10097000BF90AF909F908F900895EF92FF920F934A
:100980001F93CF93DF93EC01F12CE12C10E000E0FA
:1009900080914E0590914F05DC01ED91FC91008412
:1009A000F185E02D0995892B99F461E070E080E0F4
:1009B00090E00E948B04BFEFEB1AFB0A88EEE8166A
:1009C00083E0F80628F38FEF37C002E010E0E0CFB5
:1009D00080914E0590914F05DC01ED91FC910284D0
:1009E000F385E02D09950930110508F03CC0F801A8
:1009F000E450FB4F0C9460250505130523052305E2
:100A00002305230528052A052D058F3E09F0C0CFB3
:100A100018828983C8010196065F1F4F00341105B3
:100A200050F48C01B5CF28813981282B3983288354
:100A300021303F4E51F28EEFDF91CF911F910F91F8
:100A4000FF90EF900895FE01E00FF11F8083E2CF49
:100A50008E83E0CF1F828887DDCF2F813885282BBA
:100A600038872F83D7CFFE01E00FF11F80832F81BE
:100A70003885C80108978217930761F680E0DCCFBC
:100A80002FB7F8946091770470917804809179047D
:100A900090917A042FBF08950895AF92BF92CF929C
:100AA000DF92EF92FF920F931F93CF93DF936C012E
:100AB0007B018B01040F151FEB015E01AE18BF080F
:100AC000C017D10759F06991D601ED91FC910190C1
:100AD000F081E02DC6010995892B79F7C501DF91D9
:100AE000CF911F910F91FF90EF90DF90CF90BF902B
:100AF000AF900895FC01538D448D252F30E0842F55
:100B000090E0821B930B541710F0CF960895019735
:100B10000895FC01918D828D981761F0A28DAE0F22
:100B2000BF2FB11D5D968C91928D9F5F9F73928FA9
:100B300090E008958FEF9FEF08950F931F930E9409
:100B40004005609387047093880480938904909390
:100B50008A048FE794E00E94890597FF1DC00E94D8
:100B600040050091870410918804209189043091F8
:100B70008A04601B710B820B930B0091830410910C
:100B800084042091850430918604601771078207E0
:100B90009307F8F28FEF9FEF1F910F910895FC01DB
:100BA000918D828D981731F0828DE80FF11D858D22
:100BB00090E008958FEF9FEF08950F931F930E9489
:100BC0004005609387047093880480938904909310
:100BD0008A048FE794E00E94CF0597FF1DC00E9412
:100BE0004005009187041091880420918904309178
:100BF0008A04601B710B820B930B0091830410918C
:100C0000840420918504309186046017710782075F
:100C10009307F8F28FEF9FEF1F910F910895FC015A
:100C2000918D228D892F90E0805C9F4F821B9109CE
:100C30008F73992708958FE794E00E940F0621E0B3
:100C4000892B09F420E0822F089580E090E0892B21
:100C500029F00E941B0681110C9400000895FC01EC
:100C6000A48DA80FB92FB11DA35ABF4F2C91848D0D
:100C700090E001968F739927848FA689B7892C936A
:100C8000A089B1898C91837080648C93938D848DBD
:100C9000981306C00288F389E02D80818F7D8083C0
:100CA0000895EF92FF920F931F93CF93DF93EC0180
:100CB00081E0888F9B8D8C8D98131AC0E889F98903
:100CC000808185FF15C09FB7F894EE89FF89608306
:100CD000E889F98980818370806480839FBF81E087
:100CE00090E0DF91CF911F910F91FF90EF900895C9
:100CF000F62E0B8D10E00F5F1F4F0F731127E02EA4
:100D00008C8D8E110CC00FB607FCFACFE889F989DB
:100D1000808185FFF5CFCE010E942F06F1CFEB8DAC
:100D2000EC0FFD2FF11DE35AFF4FF0829FB7F894AF
:100D30000B8FEA89FB8980818062CFCFCF93DF93CD
:100D4000EC01888D8823B9F0AA89BB89E889F989E3
:100D50008C9185FD03C0808186FD0DC00FB607FC18
:100D6000F7CF8C9185FFF2CF808185FFEDCFCE014B
:100D70000E942F06E9CFDF91CF910895EF92FF9265
:100D80000F931F93CF93DF93EC01EC80FD806E15E2
:100D90007F050CF070C057FF04C0240F351F50E0D2
:100DA00040E08E819F81FA01E20FF31F8E179F07AB
:100DB0001CF49C01241B350B121613060CF05BC0AF
:100DC000922F842F8695869586958E9DD0018F9D36
:100DD000B00D11246A0F7B1FAF8DB8A1A60FB71FEE
:100DE000477049F188E0841B482F682F70E0FB01B1
:100DF000E059FA4FE491281708F063C0621B7109AB
:100E00002FEF30E002C0359527956A95E2F7E2238F
:100E10000130110539F0B0F10230110561F58C9106
:100E2000E82702C08C91E82BEC93941720F12C81D9
:100E30003D81A20FB31FE92FE41BE83078F00230A8
:100E4000110521F58E2F9C9190959C932C813D81CD
:100E5000A20FB31F88508830B0F7E770EE2359F027
:100E6000F0E0E859FA4FE49101301105F9F010F182
:100E70000230110519F1DF91CF911F910F91FF9071
:100E8000EF900895E0958C91E823CECF81E0011595
:100E9000110509F480E081959E2F8C932C813D8172
:100EA000A20FB31F98509830C0F7D7CF8C91E82B82
:100EB000EC93E1CFE0958C91E823FACF8C91E82771
:100EC000F7CF0130110509F4ADCFE0F20230110582
:100ED00009F4A5CFAE0DBF1DAECF0F931F93CF93D7
:100EE000DF9377FF04C0260F371F70E060E0DC015E
:100EF0001496CD91DC91FB01E20FF31FCE17DF07B3
:100F00001CF49E01261B370B121613064CF5FA0132
:100F100057FD3796A3E0F595E795AA95E1F7EC9F85
:100F2000D001ED9FB00DFC9FB00D11246A0F7B1F07
:100F3000DC015F96ED91FC91E60FF71F4770552796
:100F400081E090E001C0880F4A95EAF7482F013010
:100F5000110559F0A8F02E0F3F1F02301105E1F0E6
:100F6000DF91CF911F910F9108952E0F3F1FE21730
:100F7000F307B1F38191DF011197842B8C93F7CFA5
:100F800080952E0F3F1FE217F30751F39191DF0178
:100F9000119798239C93F7CFE217F30709F38191F8
:100FA000DF01119784278C93F7CF0F931F93FA01DA
:100FB000DC0156964C9156974230E9F04330A1F14E
:100FC000413061F514964D915C91DA01AE1BBF0B77
:100FD000FD01E21BF30B77FD0BC0DC0116964D9172
:100FE0005C916417750724F4AB01BF010E946D0783
:100FF0001F910F91089514964D915C91DA01A61BF3
:10100000B70BBD0161507109DC0116964D915C91E1
:10101000DA01AE1BBF0BFD01E21BF30B77FDE8CF3E
:10102000AF010E94BE06E4CF16964D915C91DA01A5
:10103000A61BB70BBD0161507109CDCF0F931F9354
:10104000FA01DC0156964C9156974230A9F0433094
:1010500091F1413019F514964D915C91DA01AE1B76
:10106000BF0BFD013197F7FD04C0AB01BF010E942A
:10107000BE061F910F91089514964D915C91DA016F
:10108000A61BB70BBD01DC0116964D915C91DA01F0
:10109000AE1BBF0BFD013197621B730BF7FDE9CF50
:1010A000DC0116964D915C91E417F50714F7AF013A
:1010B0000E946D07DECF16964D915C91DA01A61B5A
:1010C000B70BBD01621B730BCECFFC0177FD64C073
:1010D00080859185681779070CF05EC057FD5CC06C
:1010E00082859385481759070CF056C0868982304F
:1010F000B1F0833029F1813041F484819581841BE2
:10110000950BAB01BC01615071092130310509F12A
:1011100008F443C02230310509F463C00895848186
:101120009581DC01A61BB70BBD0161507109868159
:101130009781DC01A41BB50BAD0141505109E5CFEE
:1011400086819781861B970BBA01AC0141505109EA
:10115000DCCFCA0157FD0796A3E095958795AA9520
:10116000E1F7A481B5818A9F90018B9F300D9A9FF2
:10117000300D1124620F731F078CF0A1E02DE60FD4
:10118000F71F4770552721E030E001C0220F4A9534
:10119000EAF78081822B80830895CA0157FD079664
:1011A00033E0959587953A95E1F7A481B5818A9FBB
:1011B00090018B9F300D9A9F300D1124620F731F89
:1011C000078CF0A1E02DE60FF71F4770552781E04F
:1011D00090E001C0880F4A95EAF7809590818923B5
:1011E000DACFCA0157FD079623E0959587952A9592
:1011F000E1F7A481B5818A9F90018B9F300D9A9F62
:10120000300D1124620F731F078CF0A1E02DE60F43
:10121000F71F4770552721E030E001C0220F4A95A3
:10122000EAF780818227B7CF1F93CF93DF93C1E086
:10123000C093CB03882399F1D091B8001091BA00E4
:101240008091BC008A7B8093BC0060E082E10E94B8
:10125000E90360E083E10E94E90310923504C09342
:10126000340410920F0461E082E10E94E90361E01E
:1012700083E10E94E9038091B9008E7F8093B900D9
:101280008091B9008D7F8093B90088E48093B80085
:1012900085E48093BC001093BA00D093B800DF912E
:1012A000CF911F9108952091EC03260F3327331F10
:1012B00021323105ECF420913504FC0190E080E00E
:1012C000243069F082E00895A091EC032191AC01F3
:1012D00044535C4FA40FB52FB11D2C930196861774
:1012E00098F38091EC03680F6093EC0380E008951D
:1012F00081E0089508958FEF9FEF08958FEF9FEF9E
:1013000008958091CA0390E091958195910908957F
:10131000CF92DF92EF92FF920F931F93CF93DF93C1
:101320007C01CB018A0120913B04222389F0EB014F
:101330006B01C40ED51ECC15DD0569F06991D7018E
:10134000ED91FC910190F081E02DC7010995F3CF5B
:10135000642F0E945309C801DF91CF911F910F9113
:10136000FF90EF90DF90CF900895CF93DF931F927F
:10137000CDB7DEB7698320913B042223F9F0209199
:101380005E04203258F021E030E0FC0133832283F8
:1013900090E080E00F90DF91CF91089580913C0420
:1013A000E82FF0E0E35CFB4F998190838F5F80939F
:1013B0003C0480935E0481E090E0ECCF61E0CE01DC
:1013C00001960E945309F7CF0895FC016370668B64
:1013D0008481958126813781613039F0633029F02D
:1013E0009187808733872287089531872087938765
:1013F000828708952F923F924F925F926F927F92D1
:101400008F929F92AF92BF92CF92DF92EF92FF9214
:101410000F931F93CF93DF93CDB7DEB76A970FB6C5
:10142000F894DEBF0FBECDBF9A8F898F7A83698310
:101430004A01D22E18870F833701BC2CDC01599644
:101440002D913C915A972115310509F015C1189637
:101450008D919C911997681779070CF0D7C11A964E
:101460008D919C91481759070CF0D0C14C2C512CF0
:10147000B6E0CB9E600D711D11247C876B8716161C
:1014800017060CF0C3C1EA2DF0E0FA87E98793E074
:10149000EE0FFF1F9A95E1F7F88BEF87CF01840FCE
:1014A000951F181619060CF0B1C1A98DBA8D589662
:1014B0008C91811104C0BFEABD1508F4D394A98DA5
:1014C000BA8DED91FC9111970284F385E02DCD0149
:1014D0000995B5E0DB9EC0011124E981FA81FC8306
:1014E000EB83312C212C9C0128593F4F388F2F8BB7
:1014F0004A2D50E05E8B4D8BEF89F88DE20DF31D88
:1015000044919E828D82D12CC12C69817A81620D99
:10151000731D7A8B698B842F90E09C8B8B8BE98D6C
:10152000FA8DA081B18140FF82C0F1E0BF126FC08F
:10153000AF126DC01C96ED91FC912F813885A401EE
:101540004C0D5D1D69897A89898D9A8D0995EB8984
:10155000FC89F595E7954E2F5FEFC51AD50A6D8189
:101560007E818D899E89680F791F7E836D8398E0C7
:10157000C916D10481F6AFEF2A1A3A0AEB81FC8131
:10158000E40DF51DFC83EB83F5E02F16310409F023
:10159000B3CF2F81388526153705B9F0A98DBA8DBF
:1015A000ED91FC91B1E0BB1257C0AB1255C06981FF
:1015B0007A816B5F7F4F0088F189E02D830128E0FD
:1015C00030E0A401898D9A8D0995A98DBA8DED9190
:1015D000FC9111970688F789E02DCD016A960FB628
:1015E000F894DEBF0FBECDBFDF91CF911F910F9159
:1015F000FF90EF90DF90CF90BF90AF909F908F9033
:101600007F906F905F904F903F902F9009941E961F
:10161000ED91FC91EF80F88409851A8592014D8146
:101620005E816B817C81898D9A8D099590CF2F8108
:1016300038852615370509F48ACF31E0B31207C083
:10164000A31205C01C96ED91FC91930178CF1E96D4
:10165000ED91FC917301E0CF6B857C856419750970
:101660000684F785E02D73010F8518899201A40186
:10167000898D9A8D0995A9CFF90134969491329765
:1016800045915491D91AB7E0DB9E400D511D1124AC
:10169000F901259134913C8B2B8BFA0125903490E4
:1016A000FA013296749031963491398B3296649067
:1016B0003196449041E04C1518F04A1508F07FC06F
:1016C000662D062C000C770B7C836B83842D042CF9
:1016D000000C990B9E838D83A98DBA8DED91FC91A1
:1016E00011970284F385E02DCD010995512CD12C61
:1016F000C12CEA2DF0E0FA87E9872B2D30E03C87FA
:101700002B87A401440D511D47FC5A95588F4F8BD0
:1017100069817A81660D711D67FC7A957E876D8778
:101720007989C71608F051CF2C2D30E04D815E81AC
:10173000420F531FA985BA854A9FC0014B9F900D48
:101740005A9F900D1124FC01E80DF91DF88BEF87CD
:10175000852D612C4F89588D420F531F5E8B4D8B09
:10176000671408F050C044244394480E877041F435
:10177000C1010196EB89FC89E20DF31DD4901C0197
:10178000D7FE19C0A98DBA8DED91FC91662D70E040
:10179000B1E0BB1219C0AB1217C02D853E85620F98
:1017A000731F0484F585E02D2F8138854D895E896E
:1017B000898D9A8D0995DD0C6394842DD1CF1E827D
:1017C0001D821C821B8288CF4B815C81640F751F38
:1017D000AB85BC856A9FC0016B9F900D7A9F900D71
:1017E000112469817A81680F791F0684F785E02DBD
:1017F000EF80F88409851A859D014F855889898D68
:101800009A8D0995D8CF570CC3948ACF6A960FB694
:10181000F894DEBF0FBECDBFDF91CF911F910F9126
:10182000FF90EF90DF90CF90BF90AF909F908F9000
:101830007F906F905F904F903F902F9008958F9280
:101840009F92AF92CF92EF92FF920F931F93CF93FD
:10185000DF93EC01262F898D9A8D009709F051C0F6
:101860006A30D1F41D861C868D8948E0849F9001E2
:1018700011248E859F85820F931F9F878E8781E01D
:1018800090E0DF91CF911F910F91FF90EF90CF905B
:10189000AF909F908F9008956D3089F3CC88AD887C
:1018A0008F898823C1F08C859D8536E0C39E800D8D
:1018B000911D1124488559854817590764F44E85B0
:1018C0005F851D861C8638E0A39EC0011124840F0D
:1018D000951F9F878E87EA88FB88088919894E851E
:1018E0005F856C857D85CE010E94FA092C898C85E7
:1018F0009D8546E0249F800D911D11249D878C8736
:10190000BECF6A3069F41D861C86FC013896E491CE
:101910002D898E859F85E29F800D911D1124ADCF6D
:101920006D3009F4ACCFFC0134963491631708F4A0
:10193000A6CF3296E491E61708F4A1CFFC013296C7
:1019400085909490462F431B342F47E0349F800CA2
:10195000911C1124F401329634913196E491332391
:10196000A9F1EE2399F1CC88F4013596E491AD8884
:101970004F89442301F10E2E000CFF0BE30FF11DE4
:10198000CE9EA001CF9E500D11246C857D85460F03
:10199000571F68857985641775076CF44E855F85D8
:1019A0001D861C86FC013896E491AE9E400D511DAB
:1019B00011245F874E87EA88FB88088919894E853C
:1019C0005F856C857D85CE010E94FA09F40134960D
:1019D000E4912C898C859D85E29F800D911D1124B9
:1019E0008DCF6F927F928F929F92AF92BF92CF9244
:1019F000DF92EF92FF920F931F93CF93DF93EC014F
:101A00006B015A0139014801E881F9810284F385AB
:101A1000E02D0995E881F9810288F389E02D87019D
:101A20009301A501B601CE010995A501480D591DE7
:101A300041505109E881F9810288F389E02D930131
:101A4000B601CE010995E881F9810088F189E02D80
:101A50009401A501B601CE010995C60CD71CB601AB
:101A600061507109E881F9810088F189E02D9401C4
:101A7000A501CE010995E881F9810688F789E02D55
:101A8000CE01DF91CF911F910F91FF90EF90DF90EA
:101A9000CF90BF90AF909F908F907F906F90099460
:101AA0006F927F928F929F92AF92BF92CF92DF926E
:101AB000EF92FF920F931F93CF93DF935C01EB01A3
:101AC0006A01490138018701DC01ED91FC9162173F
:101AD000730719F5641675062CF0962D872D3A01BB
:101AE000C92ED82E9601261937092F5F3F4F048C37
:101AF000F58DE02DA301BE01C5010995DF91CF91C0
:101B00001F910F91FF90EF90DF90CF90BF90AF901B
:101B10009F908F907F906F9008954615570591F490
:101B20002617370724F0892D4B01C22FD82F9E018D
:101B3000281939092F5F3F4F068CF78DE02DA6013C
:101B4000B401DACF0284F385E02D0995D501ED913A
:101B5000FC910488F589E02D83019401A601BE0162
:101B6000C5010995D501ED91FC910688F789E02D15
:101B7000C501DF91CF911F910F91FF90EF90DF9002
:101B8000CF90BF90AF909F908F907F906F9009946F
:101B9000EF92FF920F931F93DC011A960D911C9107
:101BA0001B9718962D913C911997ED91FC9100A0EF
:101BB000F1A1E02D7B0150E040E070E060E009958C
:101BC0001F910F91FF90EF9008954F925F926F9247
:101BD0007F928F929F92AF92BF92CF92DF92EF92BD
:101BE000FF920F931F93CF93DF936C012B015A0148
:101BF00039014801DC01ED91FC910284F385E02D6F
:101C00000995E201640C751CD601ED91FC91C61595
:101C1000D7055CF40088F189E02D87019401A501C6
:101C2000BE01C60109952196EFCF0688F789E02D00
:101C3000C601DF91CF911F910F91FF90EF90DF9040
:101C4000CF90BF90AF909F908F907F906F905F905C
:101C50004F9009948F929F92AF92BF92CF92DF9252
:101C6000EF92FF920F931F93CF93DF93EC015B01F1
:101C70004A016901E881F9810284F385E02D099523
:101C800095012C0D3D1D21503109E881F981048811
:101C9000F589E02D78018401A401B501CE010995F3
:101CA000E881F9810688F789E02DCE01DF91CF9197
:101CB0001F910F91FF90EF90DF90CF90BF90AF906A
:101CC0009F908F9009948F929F92AF92BF92CF92E4
:101CD000DF92EF92FF920F931F93CF93DF93EC016C
:101CE0005B014A0169017801E881F9810284F38589
:101CF000E02D0995C80CD91C860101501109E88115
:101D0000F9810488F589E02D9501A401B501CE0182
:101D10000995E881F9810688F789E02DCE01DF91E8
:101D2000CF911F910F91FF90EF90DF90CF90BF90D8
:101D3000AF909F908F900994EF92FF920F931F9313
:101D4000DC01ED91FC9100A0F1A1E02D09951F911E
:101D50000F91FF90EF9008950F931F93DC01ED9189
:101D6000FC91068CF78DE02D09951F910F91089538
:101D70000F931F93DC01ED91FC91048CF58DE02D08
:101D800009951F910F910895DC01ED91FC9100845C
:101D9000F185E02D09942F923F924F925F926F92BE
:101DA0007F928F929F92AF92BF92CF92DF92EF92EB
:101DB000FF920F931F93CF93DF9300D000D000D0FA
:101DC000CDB7DEB73C016A013E832D83FC82EB82F6
:101DD0005801A41AB50AB7FE03C0B194A194B10882
:101DE0008D809E80861A970A97FE03C091948194F5
:101DF00091088A149B045CF0902F812F0D811E8125
:101E00009D838E839C2D8D2D6B01692F782F0C1552
:101E10001D055CF09D818E817E836D83692F782FF7
:101E2000902F812F8601C92ED82E1601201A310A33
:101E30002B012D813E81421A530A57FE03C0519453
:101E400041945108710137FE03C03FEFE31AF30AD2
:101E5000F594E7948D819E81861797075CF5A1E044
:101E6000B0E0BA83A983C016D1064CF1D301ED913D
:101E7000FC910484F585E02D2B813C81A8016D81C6
:101E80007E818A149B041CF04D815E81B801C301E0
:101E90000995E418F508F7FE0AC02D813E81898175
:101EA0009A81280F391F3E832D83E20CF31C0F5FAC
:101EB0001F4FD9CF2FEF3FEF3A832983D4CF2696F8
:101EC0000FB6F894DEBF0FBECDBFDF91CF911F914B
:101ED0000F91FF90EF90DF90CF90BF90AF909F90C9
:101EE0008F907F906F905F904F903F902F900895CC
:101EF000CF93DF93FC01C081D1810E944005C61BB6
:101F0000D70B8D2F881F8827881FDF91CF910895C9
:101F100008958EBD00000DB407FEFDCF8EB5089567
:101F20008FEF0C94890F0F931F93CF93DF9300D003
:101F3000CDB7DEB78C010E944005600F711F7A8318
:101F400069830E94900F8F3F71F0CE0101960E942D
:101F5000780F8823B1F380E00F900F90DF91CF913D
:101F60001F910F91089581E0F7CFCF93DF93FC018C
:101F70002781222349F0EC0161E085810E94E90379
:101F80008FEF0E94890F1F82DF91CF9108951F93D9
:101F9000CF93DF93EC0188E592E00E94930F182F16
:101FA000882361F08DEF0E94890FCE010E94B50F4A
:101FB0001886812FDF91CF911F9108958FE18E8335
:101FC000CE010E94B50FF5CF0F931F93CF93DF93F0
:101FD0008C01862FEA010E94890FFE0181918EBD3E
:101FE000DE5FEC17FD0741F08191000000000DB4A9
:101FF00007FEFDCF8EBDF5CF0DB407FEFDCF8FEFF1
:102000000E94890F8FEF0E94890F0E94900FF801A4
:1020100081878F71853059F081E28683C8010E94E3
:10202000B50F80E0DF91CF911F910F91089581E06E
:10203000F9CF8CBD9DBD08958F929F92AF92BF92B4
:10204000CF92DF92EF92FF920F931F93CF93DF9384
:10205000EC01162F8D8D9E8D892B09F4AEC02DA914
:102060003EA94FA958AD60E074E284EF90E00E9471
:102070003E2520513109410951095695479537951B
:1020800027952093B800112309F4A7C017EA8D8D76
:102090009E8D009709F41CC129A131E030933B04C7
:1020A00020935D0410923C0410925E04DC01ED91DB
:1020B000FC910190F081E02D60E009958D8D9E8D61
:1020C000DC01ED91FC910190F081E02D612F0995EB
:1020D00000915E04013208F0A7C010915D040E94D7
:1020E00066046B017C0180913504811178C082E027
:1020F0008093350481E0809334048FEF8093330420
:102100001092320400933104ADE3B4E0E1E1F4E075
:1021100080E00813B5C01092100480911004110FD4
:10212000182B1093100480910F04813009F0ACC07B
:1021300010920F040E9466046B017C0180911004D0
:102140008093BB008091370490913804A0913904AA
:10215000B0913A04892B8A2B8B2BA1F00E94660444
:1021600000913704109138042091390430913A04D9
:102170006C197D098E099F0906171707280739076B
:1021800008F44EC08091BC0083FDD8CF85EC8093CD
:10219000BC000E9466046B017C0180913504823092
:1021A00009F474C0809133048F3FF1F180913304BE
:1021B0008032D1F18091330437C08B8D9C8D892B77
:1021C00021F08EAD9FAD0E941910EFA5F8A9908166
:1021D0008CA980958923808356CF16EA58CF8091A9
:1021E000370490913804A0913904B0913A04892BB6
:1021F0008A2B8B2B09F477CF0E94660480903704DA
:1022000090903804A0903904B0903A046C197D097C
:102210008E099F0986169706A806B90608F063CFAF
:10222000809136040E94140910923C0410925E04BE
:1022300010923B048D8D9E8D892B09F47AC029ADB7
:102240003AAD4BAD5CAD60E074E284EF90E00E948B
:102250003E25205131094109510956954795379539
:1022600027952093B800DF91CF911F910F91FF9098
:10227000EF90DF90CF90BF90AF909F908F90089598
:102280009D9191938F5F45CF85EE81CF80913704EB
:1022900090913804A0913904B0913A04892B8A2B8B
:1022A0008B2B09F47ACF0E946604009137041091B9
:1022B00038042091390430913A046C197D098E0953
:1022C0009F09061717072807390708F066CFA8CF18
:1022D000EDA5FEA590818BA98095892380838B8DA8
:1022E0009C8D892B21F0812F0E94890FA3CF28E09C
:1022F00030E090E8E9A5FAA589A9412F4923A9F082
:102300004081842B8083EBA5FCA580814AA9842B86
:102310008083EBA5FCA540818AA9809584238083D6
:1023200096952150310931F785CF408180958423DE
:10233000E9CFEFA5F8A980819CA9892B808393CF51
:10234000CF93DF93FC012781211110C0EC01828122
:1023500093810E94191081E08F8360E08D810E943B
:10236000E9038FEFDF91CF910C94890FDF91CF912B
:102370000895DF92EF92FF920F931F93CF93DF9315
:10238000EC01162F022FF32EE42ED52E0E941215EB
:102390008823C1F18F81811103C0CE010E94A01159
:1023A000111128C0812F80640E94890F8D2D0E94F9
:1023B000890F8E2D0E94890F8F2D0E94890F802FEB
:1023C0000E94890F87E8111101C085E90E94890FD9
:1023D0000E94900F1AE00E94900F898787FF02C029
:1023E0001150C9F7DF91CF911F910F91FF90EF909E
:1023F000DF9008951C30B1F28CE291E00E94930FBF
:102400008111D0CF8FEFEECFAF92BF92CF92DF92FC
:10241000EF92FF921F93CF93DF93EC016A017B0150
:1024200059011F85112309F45EC08885823049F463
:102430008B859C85AD85BE85C816D906EA06FB0648
:1024400049F18A85A7019601833039F099E0220F7E
:10245000331F441F551F9A95D1F769E1CE010E94A1
:10246000B911882389F08EE08E83CE010E94B50FCA
:1024700010E0812FDF91CF911F91FF90EF90DF90BF
:10248000CF90BF90AF90089582E08887CB86DC869E
:10249000ED86FE8688E592E00E94930F811102C0CE
:1024A00085E2E2CFA5016CEFCE010E94E40F882304
:1024B000E1F28B859C85AD85BE850196A11DB11D80
:1024C0008B879C87AD87BE871F851111D2CFCE0128
:1024D000DF91CF911F91FF90EF90DF90CF90BF9051
:1024E000AF900C94C70F8A85833039F089E0CC0C0B
:1024F000DD1CEE1CFF1C8A95D1F7A701960168E14F
:10250000CE010E94B911882331F08DE08E83CE0177
:102510000E94B50FAECFA5016EEFCE010E94E40F71
:102520008823A9F388E592E00E94930FF82E84E2B5
:10253000FF2061F320E030E0A9016DE0CE010E94B0
:10254000B911882311F08AE0E1CF0E94900F811128
:10255000FACFCE010E94B50F1F2D8BCFEF92FF92C5
:102560001F93CF93DF93FC01208111E020FF12C065
:10257000EC017C01FBE0EF0EF11C4B815C816D8175
:102580007E81970189819A810E940412182F8111FE
:1025900008C010E0812FDF91CF911F91FF90EF9045
:1025A0000895888181FD04C088818E7F8883F2CF61
:1025B0004B815C816D817E818F819885A985BA85EB
:1025C000480F591F6A1F7B1F970189819A810E94BA
:1025D00004128111E9CFDDCFCF93DF93EC01188690
:1025E00020E030E0A9016CE00E94B911882349F095
:1025F00089E08E83CE010E94B50F80E0DF91CF91FC
:102600000895CE010E94B50F81E0F8CF8F929F927E
:10261000AF92BF92DF92EF92FF920F931F93CF93EF
:10262000DF9300D0CDB7DEB7DC011196ED91FC91C0
:10263000EF2B81F490E080E00F900F90DF91CF912D
:102640001F910F91FF90EF90DF90BF90AF909F9000
:102650008F900895D22E4A015B018C01FC01838189
:102660009481A581B68188159905AA05BB0571F0ED
:10267000C8010E94AE128823E9F2D2FE10C0D80130
:102680001C92F80183829482A582B6822D2D23703C
:10269000D801DC90D22ADC92C8010B96CDCFD801AC
:1026A0001196ED90FC90F7018085813049F4838587
:1026B0009485A585B68588169906AA06BB0621F1DC
:1026C000D7011A968C91A5019401833039F089E0E5
:1026D000220F331F441F551F8A95D1F762E1C701AE
:1026E0000E94B911882339F08CE0F7018683C70175
:1026F0000E94B50F9FCF81E0D70118968C93F70108
:1027000083869486A586B6860E944005645D7E4FCA
:102710007A8369830E94900FD70119968C93199739
:102720008F3F41F4CE0101960E94780F882391F3E8
:102730008EE1DBCF8E3F21F089E116968C93D7CFC7
:102740008FEF8EBDF8013B96D801A65FBD4F9FEF7E
:10275000AE17BF0749F0000000000DB407FEFDCF23
:102760008EB59EBD8193F4CF0DB407FEFDCF8EB51F
:102770008C93F70111860E94900F0E94900FF70131
:1027800083859485A585B6850196A11DB11D838796
:102790009487A587B6878785811171CFC7010E946D
:1027A000EC1281116CCF46CF8F929F92AF92BF9265
:1027B000CF92DF92EF92FF920F931F93CF9390935C
:1027C000C0058093BF051092C40501E010E020E031
:1027D00030E00093C7051093C8052093C9053093D6
:1027E000CA059093E1058093E0051092DF058FEF15
:1027F0009FEFDC018093E2059093E305A093E4054D
:10280000B093E505662309F44BC020E040E050E0BA
:10281000BA018FED95E00E940613009769F480E0FD
:10282000CF911F910F91FF90EF90DF90CF90BF90CD
:10283000AF909F908F900895FC01E254FE4F248149
:10284000222369F320812F7751F78A539E4FFC0191
:10285000C080D180E280F38020E0B701A6018FED37
:1028600095E00E940613FC01892BC9F28089823011
:10287000B1F6838594858115924089F6958590936C
:10288000C1058FEF890F8093C205C0E081E09817E2
:1028900069F0CF5FC93041F488E08093C305BFCFB2
:1028A000C12CD12C7601D8CF880FF1CFC093C305AE
:1028B00086899789B0E0A0E08093CB059093CC0502
:1028C000A093CD05B093CE05892B8A2B8B2B61F479
:1028D00084A195A1A6A1B7A18093CB059093CC0527
:1028E000A093CD05B093CE0586859785A701960167
:1028F000280F391F411D511DDA01C9018093D305ED
:102900009093D405A093D505B093D605218932893B
:102910003093C6052093C5054091CB055091CC0559
:102920006091CD057091CE054A015B01880C991C20
:10293000AA1CBB1C880D991DAA1DBB1D8093DB051D
:102940009093DC05A093DD05B093DE0505E0220F32
:10295000331F0A95E1F721503E4F232F3327269549
:10296000820F931FA11DB11D8093CF059093D005B9
:10297000A093D105B093D20583889488B12CA12C63
:1029800081149104A104B10421F480A091A0A2A01B
:10299000B3A0C81AD90AEA0AFB0AC80CD91CEA1C57
:1029A000FB1C04C0F694E794D794C794CA95D2F759
:1029B000D701C6010196A11DB11D8093D705909343
:1029C000D805A093D905B093DA0535EFC3163FE0DB
:1029D000D306E104F10420F48CE08093C4051FCFFA
:1029E00085EFC8168FEFD806E104F10468F480E1A2
:1029F0008093C4054093E6055093E7056093E8058E
:102A00007093E90581E00CCF84A595A5A6A5B7A58F
:102A10008093DB059093DC05A093DD05B093DE0584
:102A200080E2E6CFFC012085223011F40C94C70F20
:102A3000213011F40C94EC1281E00895CF93DF93D0
:102A40008091EC0787FF52C04091FE075091FF072D
:102A500060910008709101088091F0079091F10752
:102A600021E080960E940613009749F48091EB07BD
:102A700081608093EB0780E0DF91CF910895E09132
:102A8000EE07F091EF07EF70FF2725E0EE0FFF1F35
:102A90002A95E1F7E80FF91F309741F38081853ED1
:102AA00029F38091EA07877383878091EA0783FF80
:102AB0000CC08091020890910308A0910408B09185
:102AC0000508848F958FA68FB78F80910608909107
:102AD0000708A0910808B0910908938F828FB58BE1
:102AE000A48B8091EC078F778093EC07C091F0075F
:102AF000D091F107CE0180960E94AE12882309F48E
:102B0000B5CF888199810E941215882309F4AECF30
:102B1000B3CF20916404309165042817390771F40C
:102B20009091620480916304981741F0E0916204EF
:102B3000F0E0E657FC4F808190E008958FEF9FEF23
:102B40000895EF92FF920F931F93CF93DF93DC01D1
:102B50005C96ED90FC905D97E114F10479F481E0CE
:102B600090E013969C938E93129790E080E0DF9113
:102B7000CF911F910F91FF90EF9008955196ED9195
:102B8000FC91529750968C915097982F90950FB733
:102B90005E962C915E97122F127021FD6095F8942D
:102BA0002081112319F1282B2083E7012197F1F7C8
:102BB00028E0462F50E0308160FF1AC0382B308368
:102BC000E7012197F1F7BA0175956795215089F7CB
:102BD000112381F08081892380830FBF5C968D91C2
:102BE0009C910197F1F781E090E0C1CF2923DCCFE0
:102BF0003923E5CF9081892BEFCF20916404309168
:102C000065042817390761F48091630420916204F8
:102C100090E0805C9F4F821B91098F7399270895E4
:102C200090E080E0089520916404309165042817B5
:102C30003907B9F49091620480916304981789F080
:102C4000E0916204F0E0E657FC4F8081209162043D
:102C500030E02F5F3F4F2F7333272093620490E0C3
:102C600008958FEF9FEF089590E080E00895FB01B5
:102C700001900020E9F73197AF01461B570B0C94E8
:102C80004D058F929F92AF92BF92CF92DF92EF92BB
:102C9000FF920F931F93CF93DF93CDB7DEB7A1972A
:102CA0000FB6F894DEBF0FBECDBF6C01990FEE08D2
:102CB000FF08F7FE4BC06DE28FE794E00E945106DB
:102CC0008C0122273327A9012C193D094E095F09E0
:102CD00019A2CE0181967C019AE0892E912CA12C1B
:102CE000B12CCA01B901A50194010E943E25605D85
:102CF000F70162937F01211531054105510589F7DF
:102D000090E080E0309729F0BF018FE794E00E94C7
:102D10003716080F191F68E671E08FE794E00E94EC
:102D20003716800F911FA1960FB6F894DEBF0FBE25
:102D3000CDBFDF91CF911F910F91FF90EF90DF906A
:102D4000CF90BF90AF909F908F900895A70196016C
:102D500019A28E010F5D1F4F8AE0C82ED12CE12CE5
:102D6000F12CCA01B901A70196010E943E25605DC0
:102D7000F80162938F01211531054105510589F74D
:102D8000309739F0BF018FE794E00E9437168C012D
:102D9000C2CF10E000E0BFCF0F931F93CF93DF931C
:102DA0008C01D0E0C0E0F801EC0FFD1F64916623B8
:102DB00041F08FE794E00E945106892B11F0219693
:102DC000F2CF68E671E08FE794E00E9437168C0F2F
:102DD0009D1FDF91CF911F910F910895CF93DF93A6
:102DE000FC0144815581608171818FE794E00E94EC
:102DF0004D05EC0168E671E08FE794E00E9437161C
:102E00008C0F9D1FDF91CF9108950F931F93CF9348
:102E1000DF93EC010E9437168C0168E671E0CE0169
:102E20000E943716800F911FDF91CF911F910F9154
:102E30000895CF93DF93CDB7DEB7C954D1090FB64C
:102E4000F894DEBF0FBECDBF81E09FEE9A838983E9
:102E500091E09F8321E030E0398728878FEF8B83D3
:102E60008C838D838E839A87CE0101960E943603D0
:102E7000CE0101960E94BD0481110EC08F81873062
:102E800059F48A85C75BDF4F0FB6F894DEBF0FBEDB
:102E9000CDBFDF91CF91089581E0F4CFCF93DF9341
:102EA000CDB7DEB7C954D1090FB6F894DEBF0FBE57
:102EB000CDBF21E03FEE3A83298391E09F8322E05A
:102EC00030E0398728879FEF9B839C839D839E8377
:102ED00092E09A878B87CE0101960E943603CE013D
:102EE00001960E94BD0481110EC08F81873059F474
:102EF0008A85C75BDF4F0FB6F894DEBF0FBECDBF2C
:102F0000DF91CF91089581E0F4CF0E942326AF9204
:102F1000BF92CF92DF92EF92FF920F931F93CF93C6
:102F2000DF93DC01CD90DC901197C114D10439F00E
:102F30001496CD91DC918C017601209761F4DF919C
:102F4000CF911F910F91FF90EF90DF90CF90BF90A6
:102F5000AF90089575015701BFEFAB1ABB0AF70197
:102F60008081082E000C990B0E94E124892B91F797
:102F70002197CC0DDD1D8881082E000C990B0E9435
:102F8000E124892B29F0CE15DF0510F02197F3CF2E
:102F9000AE014F5F5F4F4E195F09D80115965C93E4
:102FA0004E931497CE14DF0420F4B701C6010E949B
:102FB0002826D801ED91FC91119714968D919C9142
:102FC000E80FF91F1082BBCF0F931F93CF93DF93AE
:102FD0008C01EB01FC01808191810097E1F0688117
:102FE000798161157105A9F0428153812C813D8160
:102FF0004217530770F00E9431268C819D81F801A1
:10300000958384831D821C82DF91CF911F910F9144
:1030100008950E941C2488819981F80191838083FE
:103020008A819B81938382838C819D819583848314
:10303000198218821B821A82E5CFFC01808191815E
:10304000009711F00C941C2408950F931F93CF93B5
:10305000DF93EC0188819981009759F02A813B81A7
:103060002617370730F081E0DF91CF911F910F9144
:1030700008958B016F5F7F4F0E946625009759F07E
:10308000998388831B830A832C813D81232B59F7E5
:10309000FC011082E8CF80E0E7CFEF92FF920F9320
:1030A0001F93CF93DF93EC017B018A01BA010E9449
:1030B000251828813981811114C02115310519F095
:1030C000C9010E941C24198218821D821C821B8245
:1030D0001A82CE01DF91CF911F910F91FF90EF9057
:1030E00008951D830C83B701C9010E943126F1CFD9
:1030F000FC0111821082138212821582148250E028
:1031000040E06AE671E00C944D18EF92FF920F9345
:103110001F93CF93DF9300D0CDB7DEB78C010E9411
:1031200078180E949D0597FD21C08A309105F1F025
:1031300089831A82F801E480F580FFEFEF1AFF0A15
:10314000B701C8010E942518882359F3F80120818E
:10315000318184819581BE016F5F7F4F820F931F04
:103160000E943126F801F582E482DBCFC8010F907E
:103170000F90DF91CF911F910F91FF90EF900895E5
:10318000FB01DC0111961C921E9213961C921E925A
:10319000129715961C921E9214978617970749F05E
:1031A000608171816115710521F0448155810C9414
:1031B0004D18089585ED8093BC008091370490915F
:1031C0003804A0913904B0913A040796A11DB11DAD
:1031D00023E0B695A795979587952A95D1F72091E5
:1031E000BC0024FD03C010923504089540913704BB
:1031F000509138046091390470913A04452B462B64
:10320000472B69F30097A105B10541F02AE22A9501
:10321000F1F700C00197A109B109E1CF809136040F
:103220000C9414091F920F920FB60F9211242F9332
:103230003F938F939F93AF93BF9380917704909127
:103240007804A0917904B0917A043091760423E057
:10325000230F2D3758F50196A11DB11D209376043B
:103260008093770490937804A0937904B0937A04C0
:1032700080917B0490917C04A0917D04B0917E04A8
:103280000196A11DB11D80937B0490937C04A093B3
:103290007D04B0937E04BF91AF919F918F913F9138
:1032A0002F910F900FBE0F901F90189526E8230FB7
:1032B0000296A11DB11DD2CF1F920F920FB60F9291
:1032C00011242F933F934F935F936F937F938F932B
:1032D0009F93AF93BF93EF93FF938FE794E00E9488
:1032E0002F06FF91EF91BF91AF919F918F917F91A9
:1032F0006F915F914F913F912F910F900FBE0F9063
:103300001F9018951F920F920FB60F9211242F93B2
:103310008F939F93EF93FF93E0918F04F09190042C
:103320008081E0919504F091960482FD1BC090810C
:10333000809198048F5F8F7320919904821741F0D8
:10334000E0919804F0E0E158FB4F958F809398044A
:10335000FF91EF919F918F912F910F900FBE0F9042
:103360001F9018958081F4CF1F920F920FB60F9285
:1033700011242F933F934F935F936F937F938F937A
:103380009F93AF93BF93EF93FF938091B900887F92
:10339000803609F44AC0F0F5883209F4A5C018F562
:1033A000803109F499C0B8F4882309F4F5C0883055
:1033B00009F492C0FF91EF91BF91AF919F918F91CE
:1033C0007F916F915F914F913F912F910F900FBE21
:1033D0000F901F901895883109F486C0803251F7FC
:1033E0008093330414C0803409F49BC040F48033CC
:1033F000B9F38833F9F68093330485ECAEC0803599
:1034000009F483C0883509F494C0883499F60E9481
:10341000DA18D0CF883909F48AC038F5883729F00E
:1034200050F4883611F0803729F683E08093350414
:1034300010920E0455C0883809F479C0803919F00B
:10344000803809F0B7CF80910E04803208F06FC049
:10345000E0910E0481E08E0F80930E048091BB00FA
:10346000F0E0E251FC4F80833BC0803B39F0D0F468
:10347000803A09F477C0883A09F09CCF84E08093C1
:1034800035041092ED031092EC03F0E0E0E00995B2
:103490008091EC0381110FC081E08093EC031092C6
:1034A000CC0309C0803C09F4A8CF883C09F4A5CF1F
:1034B000883B09F07FCFE091ED0381E08E0F809390
:1034C000ED03F0E0E453FC4F80818093BB009091CA
:1034D000ED038091EC0329C0809110048093BB0020
:1034E00085EC8093BC0066CF9091320480913104CA
:1034F000981758F5E091320481E08E0F80933204E2
:10350000F0E0EF5EFB4F8081E9CFE091320481E093
:103510008E0F809332048091BB00F0E0EF5EFB4F92
:10352000808390913204809131049817C8F285E825
:10353000D8CFE091320481E08E0F809332048091E5
:10354000BB00F0E0EF5EFB4F80838091340481117B
:103550005ECF81E080930F0484EA8093BC001092D8
:10356000350428CF85EC8093BC00109235048091FF
:103570000E04803230F4E0910E04F0E0E251FC4F92
:10358000108260910E0470E08EEE93E0F0E0E0E0D7
:10359000099510920E040ECF1092330438CF1F926B
:1035A0000F920FB60F9211242F933F934F935F9377
:1035B0006F937F938F939F93AF93BF93EF93FF93FB
:1035C000E0916404F0916504309749F0A685B785D1
:1035D0008585968D91FF14C09C918923A1F4FF915C
:1035E000EF91BF91AF919F918F917F916F915F917B
:1035F0004F913F912F910F900FBE0F901F901895F4
:103600009C91892361F7A389B4899C9185898095D0
:1036100089238C93868997890197F1F7608D718D45
:10362000A685B785558538E020E0CB010197F1F7F5
:10363000822F90E095958795282F4C91452309F08E
:103640002068315091F7868D81FD2095809163042B
:1036500090E001968F73992730916204381799F0A2
:10366000A0916304B0E0A657BC4F2C9380936304F1
:10367000828D938D0197F1F7A389B4898C919589F7
:10368000892B8C93ACCF868D8160868FF1CF0F9381
:103690001F93109282041092810408EE13E020E040
:1036A00030E00093830410938404209385043093C6
:1036B00086048AE091E09093800480937F0485ECF7
:1036C00090E090938C0480938B0484EC90E0909332
:1036D0008E0480938D0480EC90E09093900480930E
:1036E0008F0481EC90E0909392048093910482EC9B
:1036F00090E0909394048093930486EC90E09093F0
:103700009604809395041092980410929904109254
:103710009A0410929B0410927605109275050093FE
:103720007705109378052093790530937A058CE11D
:1037300091E0909374058093730510928205109226
:10374000810540E850E0509384054093830580E470
:1037500090E090938605809385055093880540936B
:10376000870590938A05809389051092950510929C
:103770008C0510928B0510928E0510928D0561E0DC
:1037800060939405609393058FEF9FEF909392055C
:10379000809391059093900580938F056093960593
:1037A00010929705109299051092980580E491E087
:1037B0009093800580937F0510929B0510929A0547
:1037C00083E795E090939D0580939C0510929F055B
:1037D00010929E059FEF9093A3059093A40590935C
:1037E000A5059093A6059093A70580E89AE1A6E029
:1037F000B0E08093B4059093B505A093B605B0935F
:10380000B70580EA96E8A1E0B0E08093B805909310
:10381000B905A093BA05B093BB0580E58093BD05BB
:103820001092BE0510925705109256050093580548
:103830001093590520935A0530935B058EE291E071
:10384000909355058093540510926B0510926A056C
:1038500010926D0510926C0510926F0510926E0516
:103860001092710510927005809172058E7F8D7F88
:103870008093720586958170682783E00E94E90332
:1038800061E083E00E943504E3E0F6E0E491E09338
:103890006405EFEEF5E0E491F0E0EE0FFF1FEE516E
:1038A000FA4F85919491909366058093650560E049
:1038B00082E00E9435048091720581FD04C061E0C0
:1038C00082E00E94E90324E535E082E08093600510
:1038D000E2E0F6E0E491E0936105EEEEF5E0E491DC
:1038E000F0E0EE0FFF1FE852FA4F8591949190930C
:1038F00063058093620510922305109222051092B1
:1039000025051092240540E450E05093270540938C
:10391000260510922905109228058FEF9FEFDC01F4
:1039200080932A0590932B05A0932C05B0932D0529
:1039300050932F0540932E0540E051EE50933105F2
:1039400040933005109232051092330510923405E1
:10395000109235058093360590933705A09338056E
:10396000B0933905109253051092520530935105CA
:103970002093500530934F0520934E051092C405B7
:103980001092E1051092E0051092DF058093E205A8
:103990009093E305A093E405B093E5051092EA0740
:1039A0001092EB071092EC0710920B0810920A0885
:1039B00010920D0810920C0880E580930E0810926A
:1039C0000F0810921008109211088AE280931208D2
:1039D00010921308109214081092150810921608ED
:1039E00010921708109218081092190810921A08CD
:1039F00010921B081F910F910895CF93DF93CDB7BD
:103A0000DEB7C957D1090FB6F894DEBF0FBECDBFE0
:103A1000789484B5826084BD84B5816084BD85B5A9
:103A2000826085BD85B5816085BD80916E008160B5
:103A300080936E001092810080918100826080935B
:103A4000810080918100816080938100809180005D
:103A50008160809380008091B10084608093B10088
:103A60008091B00081608093B00080917A00846082
:103A700080937A0080917A00826080937A008091AE
:103A80007A00816080937A0080917A0080688093C8
:103A90007A001092C100E0918F04F091900482E0CE
:103AA0008083E0918B04F0918C041082E0918D046E
:103AB000F0918E048FEC808310929704E091930430
:103AC000F091940486E08083E0919104F091920457
:103AD000808180618083E0919104F09192048081E3
:103AE00088608083E0919104F091920480818068E5
:103AF0008083E0919104F091920480818F7D808396
:103B000010921008109213081092140810921508C1
:103B100010921608109212088AE08093110861E052
:103B20000E94350461E0809111080E94E90382E55A
:103B300080930E0810920F081FB7F89480916104CB
:103B4000811127C0E6EFF5E08491EAE0F6E0949178
:103B5000E82FF0E0EE0FFF1FE654FA4FA591B49165
:103B6000EC91E92321F461E08AE00E94E90361E03D
:103B70008AE00E9435048CB580618CBD8CB5806470
:103B80008CBD61E08DE00E94350461E08BE00E9415
:103B90003504809161048F5F809361041FBF81E0D1
:103BA000809310088CE098E00E94A01161E0809161
:103BB00011080E94E9031AE00E94900F1150E1F7EA
:103BC00060E0809111080E94E9030E944005605363
:103BD000784F7A83698320E030E0A90160E08CE0CF
:103BE00098E00E94B911082F8130A1F0CE01019612
:103BF0000E94780F882379F381E0809312088CE08B
:103C000098E00E94B50F10920B0810920A0860E825
:103C100071E0C5C02AEA31E040E050E068E08CE0A5
:103C200098E00E94B91182FD11C014E00E94900F2B
:103C3000809315081150D1F78A3A29F1CE010196E7
:103C40000E94780F882331F386E0D7CF11E0C12C92
:103C5000D12C760120E030E0A90167E38CE098E008
:103C60000E94B911A701960169E28CE098E00E94D8
:103C7000B911882379F0CE0101960E94780F88232C
:103C800049F387E1BACF12E0C12CD12CE12C30E40A
:103C9000F32EE0CF1230C9F420E030E0A9016AE34E
:103CA0008CE098E00E94B911882311F082E1A5CF41
:103CB0000E94900F807C803C09F413E00E94900FDA
:103CC0000E94900F0E94900F012F8CE098E00E94BC
:103CD000B50F80E580930E0881E080930F08009374
:103CE000160810921B088CE098E090930B088093C4
:103CF0000A088091120881118ACF61E08CE098E077
:103D00000E94D4138823C1F08091EA0781110E9498
:103D10001E15EAEEF7E080E2DF011D928A95E9F7D1
:103D20008FEB95E09093F1078093F0078091C405A5
:103D3000803139F1803219F160E080910A08909168
:103D40000B080E94D413882309F461CF8091EA07FD
:103D500081110E941E15EAEEF7E080E2DF011D925C
:103D60008A95E9F78FEB95E09093F1078093F00740
:103D70008091C405803129F0803209F048CF80E875
:103D800001C080E48093EA0781E08093EC078FEB29
:103D900095E09093600480935F046BE671E08FE799
:103DA00094E00E94051768EE73E080E090E00E94C6
:103DB0008B04E0915205F0915305309741F1A089B1
:103DC000B18982E08C93A089B1891C92A485B585C4
:103DD0001C92A685B78580E18C93108EA489B58945
:103DE00086E08C93A289B3898C9180618C93A2899F
:103DF000B3898C9188608C93A289B3898C918068F7
:103E00008C930288F389E02D80818F7D8083E091FF
:103E10005005F0915105309709F477C0138E128E3A
:103E2000118E108E178A168A82E490E0958F848F07
:103E30008485863108F03DC02FE030E0378B268B3B
:103E400020E430E0318F208F27E230E0338F228F63
:103E500090916800883008F492C021E08E3008F418
:103E600020E081E001C0880F2A95EAF7892B809332
:103E7000680094852DE630E0983050F02BE630E075
:103E80009E3030F02CE630E0963110F030E020E04B
:103E9000348B238B292F30E0983008F072C081E0FA
:103EA00001C0880F9A95EAF7858B848D958D0197CF
:103EB000F1F7828D938D892B41F1409164045091EB
:103EC0006504E417F50709F14115510569F0DA01B8
:103ED00053962D913C91D9019C91DA0155968C9184
:103EE00080958923D9018C93868D8E7F868F109241
:103EF000630410926204F0936504E0936404A38960
:103F0000B4898C919589892B8C939091320520915D
:103F10003305309134054091350561E07FEE7A83B9
:103F2000698381E08F8365E070E0798768878FEF30
:103F30008B838C838D838E8383E18A874B873C8739
:103F40002D879E87CE0101960E943603CE010196F1
:103F50000E94BD04811106C08F81873019F48A85C3
:103F60008823E1F06FE971E08FE794E00E94051784
:103F700061E070E080E090E00E948B04F9CF84E083
:103F800075CF9E3040F42850310981E001C0880F80
:103F90002A95EAF789CF2E503109F7CF88E795E0C7
:103FA0000E94CC1666246A94762CCC24C3949FEE8F
:103FB000D92EAA24A394B12C80EB95E00E94CC16B4
:103FC00081EA95E00E94CC1682E995E00E94CC1629
:103FD0008FE794E00E940F06892B39F46AE070E0C5
:103FE00080E090E00E948B04F3CFCE018C589F4F6D
:103FF0000E948518CE018C589F4F0E948717E69625
:104000008EAD9FADE6970097C9F00E94A524613060
:104010007105C1F062307105E1F0CE018C589F4FFF
:104020000E941D1880E090E0892B31F20E941B064F
:10403000882309F4B7CF0E940000B4CF60E070E09D
:10404000CB01E5CF62EC71E08FE794E00E940517A9
:10405000E4CF6EEC71E08FE794E00E940517809149
:104060006E04811133C07092670460926604DA8234
:10407000C98281E08F83B986A8868FEF8B838C837A
:104080008D838E838DE18A87CE0101960E9436034F
:10409000CE0101960E94BD0481110CC08F81873032
:1040A00049F48B859C85982789279827909321052B
:1040B0008093200580912005909121050196909391
:1040C0006D0480936C0481E080936E046AED71E06E
:1040D0008FE794E00E94371680916C0490916D04F4
:1040E0000E9441168091660490916704892BE9F043
:1040F0000E941917282F30E030936704209366043C
:10410000882349F0823071F068EE73E080E090E03F
:104110000E948B04E7CF62E072E08FE794E00E9498
:104120000517F2CF6EE771E0F8CF81E00E944E17DD
:10413000282F30E030936704209366048823E9F148
:10414000863009F441C08091660490916704909391
:10415000690480936804892B09F0A5C26AE372E0C0
:104160008FE794E00E94051760ED77E080E090E033
:104170000E948B04709267046092660468E472E0A7
:104180008FE794E00E940517809166049091670480
:10419000892B39F10E941917282F30E030936704DA
:1041A00020936604882399F08230C1F068EE73E0B2
:1041B00080E090E00E948B04E7CF64E172E08FE73B
:1041C00094E00E940517BFCF6AE272E0F8CF60E684
:1041D00072E08FE794E00E940517E8CF6EE771E088
:1041E000F8CF82E00E944E17282F30E0309367040A
:1041F00020936604882309F42BC2863009F42FC269
:10420000809166049091670490936B0480936A0494
:10421000892B09F048C26AE872E08FE794E00E94B7
:10422000371680916C0490916D040E944116DA82D9
:10423000C98281E08F83B986A8868FEF8B838C83B8
:104240008D838E8385E08A87CE0101960E94360396
:10425000CE0101960E94BD04882309F403C2B092E6
:104260006704A09266048091660490916704892B8C
:1042700009F019C26BEB72E08FE794E00E943716E9
:1042800020916C0430916D04DA82C98291E09F83A1
:1042900044E050E0598748878FEF8B838C838D8370
:1042A0008E8386E08A879B873C872D87CE01019687
:1042B0000E943603CE0101960E94BD048111E6C121
:1042C0008F81873009F0E2C18A8590E0909367047E
:1042D0008093660461ED72E08FE794E00E943716E8
:1042E00080916604909167040E9441168091660453
:1042F00090916704892B31F46DED72E08FE794E0C3
:104300000E9405178091660490916704892B09F03B
:10431000CAC180906C0490906D04C4010196909382
:104320006D0480936C046DEF72E08FE794E00E945F
:10433000371680916C0490916D040E94411666E0DE
:1043400073E08FE794E00E9405178114910409F44B
:10435000AAC1CE0182599F4F0E947818CE01885978
:104360009F4F0E947818CE018E599F4F0E94781857
:10437000CE01845A9F4F0E9478186DE173E08FE759
:1043800094E00E9405178FE794E00E940F06892BA6
:10439000D1F3CE0101960E948518BE016F5F7F4F59
:1043A000CE0182599F4F0E94E417CE0101960E94D0
:1043B0001D18CE0182599F4F0E9487176DE273E04E
:1043C0008FE794E00E9405178FE794E00E940F06A4
:1043D000892BD1F3CE0101960E948518BE016F5F33
:1043E0007F4FCE0188599F4F0E94E417CE0101965E
:1043F0000E941D18CE0188599F4F0E9487176DE3B8
:1044000073E08FE794E00E9405178FE794E00E9425
:104410000F06892BD1F30E94DD05FC0197FD3FC1FA
:104420008D32910521F0C0970A9708F031C1212CF7
:10443000312C210110E0E130F105D9F0ED32F10528
:1044400009F42BC1CF01C0970A9798F4AAE0B0E015
:10445000A20191010E94ED241F01FF0F440855089D
:10446000260E371E481E591EB0E32B1A310841088C
:1044700051088FE794E00E9489050E94DD05FC0148
:10448000C0970A97C0F2E130F105A9F2112341F07B
:104490005094409430942094211C311C411C511C98
:1044A0008FE794E00E94890562E573E08FE794E06E
:1044B0000E9405178FE794E00E940F06892BD1F325
:1044C000CE0101960E948518BE016F5F7F4FCE011D
:1044D0008E599F4F0E94E417CE0101960E941D182D
:1044E000CE018E599F4F0E94871764E673E08FE7D5
:1044F00094E00E9405178FE794E00E940F06892B35
:10450000D1F3CE0101960E948518BE016F5F7F4FE7
:10451000CE01845A9F4F0E94E417CE0101960E945B
:104520001D18CE01845A9F4F0E948717BE01625901
:104530007F4FCE0101960E94C018BE0168597F4F7F
:10454000CE01865B9F4F0E94C018BE016E597F4FFF
:10455000CE01805B9F4F0E94C018BE01645A7F4FFE
:10456000CE018A5A9F4F0E94C0188CE190E00E94B1
:1045700080238C01FC01819291927F01BE016F5FCB
:104580007F4FCF010E94C018BE01665B7F4FC801FC
:1045900008960E94C018D8011F963C922E921E9732
:1045A000BE01605B7F4FC80140960E94C018480161
:1045B000B6E18B0E911CBE016A5A7F4FC4010E9466
:1045C000C018CE018A5A9F4F0E941D18CE01805BF1
:1045D0009F4F0E941D18CE01865B9F4F0E941D18A1
:1045E000CE0101960E941D18CE01845A9F4F0E9451
:1045F0001D18CE018E599F4F0E941D18CE0188595B
:104600009F4F0E941D18CE0182599F4F0E941D1876
:10461000F801808191810E944116B701CE01019677
:104620000E94C018CE0101960E94EE16CE0101969E
:104630000E941D18B401CE0101960E94C018CE013F
:1046400001960E94EE16CE0101960E941D18E5CC3F
:1046500063E772E08FE794E00E940517D1CD6AE22C
:1046600072E0F8CF8F81873009F0F9CD8A85282F45
:1046700030E030936704209366048111F4CD61EA41
:1046800072E08FE794E00E940517EDCD81E01DCE2A
:104690008FE794E00E948905BECE11E0EACE212C7E
:1046A000312C2101FDCE67E773E0CECC8EE291E0A4
:1046B000909355058093540580916404909165040E
:1046C0008455954071F4E0916705F09168059081FB
:1046D00080916905809589238083109265041092EA
:1046E000640480E491E09093800580937F0580913D
:1046F0009E0590919F05009711F00C941C2408953D
:104700000F931F93CF93DF938230910510F482E0D3
:1047100090E0E0911E08F0911F0830E020E0B0E04A
:10472000A0E0309799F42115310509F44AC0281BFF
:10473000390B24303105D8F58A819B8161157105CB
:1047400089F1FB0193838283FE0111C04081518175
:104750000281138148175907E0F04817590799F467
:10476000109761F012960C93129713961C93329641
:10477000CF01DF91CF911F910F91089500931E08F3
:1047800010931F08F4CF2115310551F0421753073C
:1047900038F0A901DB019A01BD01DF01F801C1CFA9
:1047A000EF01F9CF90931F0880931E08CDCFFE0133
:1047B000E20FF31F819391932250310939832883AB
:1047C000D7CF20911C0830911D08232B41F4209154
:1047D00002013091030130931D0820931C082091A1
:1047E0000001309101012115310541F42DB73EB78B
:1047F0004091040150910501241B350BE0911C08E8
:10480000F0911D08E217F307A0F42E1B3F0B2817A9
:10481000390778F0AC014E5F5F4F2417350748F039
:104820004E0F5F1F50931D0840931C088193919376
:104830009FCFF0E0E0E09CCFCF93DF930097E9F0CB
:10484000FC01329713821282A0911E08B0911F08BA
:10485000ED0130E020E01097A1F420813181820F3A
:10486000931F20911C0830911D082817390709F063
:1048700061C0F0931D08E0931C08DF91CF9108956B
:10488000EA01CE17DF07E8F54A815B819E014115F9
:104890005105B1F7E901FB83EA8349915991C40FAE
:1048A000D51FEC17FD0761F4808191810296840F7A
:1048B000951FE90199838883828193819B838A83F1
:1048C000F0E0E0E012968D919C9113970097B9F576
:1048D0002D913C911197CD010296820F931F20914B
:1048E0001C0830911D082817390739F6309751F503
:1048F00010921F0810921E08B0931D08A0931C0868
:10490000BCCFD383C28340815181840F951FC817C8
:10491000D90761F44E5F5F4F88819981480F591F15
:10492000518340838A819B81938382832115310542
:1049300009F0B0CFF0931F08E0931E089ECFFD0151
:10494000DC01C0CF13821282D7CF1F93FC019927BD
:104950008827BC01E89411911032E9F3193010F066
:104960001E30C8F31B3251F01D3249F4689406C062
:104970000E94CC24610F711D811D911D1191105356
:104980001A30B0F33EF490958095709561957F4F05
:104990008F4F9F4F1F910895592F482F372F262F44
:1049A000660F771F881F991F660F771F881F991F33
:1049B000620F731F841F951F660F771F881F991F33
:1049C000089591110C94EA24803219F08950855091
:1049D000C8F708959927882708950E942F25A59F35
:1049E000900DB49F900DA49F800D911D11240895EA
:1049F0002F923F924F925F926F927F928F929F92EF
:104A0000AF92BF92CF92DF92EF92FF920F931F93DC
:104A1000CF93DF93CDB7DEB7CA1BDB0B0FB6F8948D
:104A2000DEBF0FBECDBF09942A88398848885F84CD
:104A30006E847D848C849B84AA84B984C884DF803E
:104A4000EE80FD800C811B81AA81B981CE0FD11D22
:104A50000FB6F894DEBF0FBECDBFED010895A29F43
:104A6000B001B39FC001A39F700D811D1124911D42
:104A7000B29F700D811D1124911D0895A1E21A2E7F
:104A8000AA1BBB1BFD010DC0AA1FBB1FEE1FFF1FF2
:104A9000A217B307E407F50720F0A21BB30BE40B42
:104AA000F50B661F771F881F991F1A9469F7609589
:104AB0007095809590959B01AC01BD01CF01089543
:104AC000EE0FFF1F0590F491E02D0994B0E0A0E0F7
:104AD000ECE6F5E20C94FA248C01009751F4CB013A
:104AE0000E9480238C01C801CDB7DEB7E0E10C94B1
:104AF0001625FC01E60FF71F9C0122503109E21731
:104B0000F30708F49DC0D901CD91DC911197C61728
:104B1000D70798F0C530D10530F3CE01049786173A
:104B2000970708F3C61BD70B2297C193D1936D93B8
:104B30007C93CF010E941C24D6CF5B01AC1ABD0A26
:104B40004C018C0E9D1EA0911E08B0911F08512C87
:104B5000412CF12CE12C109731F580911C0890919B
:104B60001D088815990509F05CC04616570608F01F
:104B700058C08091000190910101009741F48DB7D8
:104B80009EB74091040150910501841B950BE817D5
:104B9000F90708F055C0F0931D08E0931C08F901CF
:104BA00071836083A0CF8D919C91119712966C9028
:104BB000129713967C901397A815B90559F56C01B7
:104BC00042E0C40ED11CCA14DB0420F1AC014A1926
:104BD0005B09DA011296159780F062827382518325
:104BE0004083D9016D937C93E114F10471F0D701F6
:104BF0001396FC93EE93129776CF22968C0F9D1FFF
:104C0000F90191838083F301EFCFF0931F08E093C4
:104C10001E0869CF4816590608F42C017D01D301FE
:104C20009ACFCB010E9480237C01009749F0AE010E
:104C3000B8010E942826C8010E941C24870153CF76
:104C400010E000E050CF81E090E0F8940C9438261A
:104C5000FB01DC0102C001900D9241505040D8F799
:104C60000895FB01DC0101900D920020E1F7089509
:104C700013E0CBE0D3E004C0FE010E946025219642
:104C8000CC30D107C9F7F894FFCF0000200880008E
:104C90000000000051064D057A059E060F068905A5
:104CA000CF0500000000B509880934167A0981098A
:104CB0007E097B0900000000A1154D0534167A0914
:104CC000FD1513168915000000001F0C4D05341644
:104CD0004C0565087A09C40E9C0EB80EAC0ECB0EBE
:104CE0007A09E5091C10D5071E08E50DC80D500D01
:104CF000F10C0D0A007364206361726420696E69AF
:104D00007469616C697A65642E00736420636172F2
:104D10006420696E697469616C697A6174696F6E27
:104D2000206661696C65642100446964206E6F745B
:104D30002066696E642066696E6765727072696E5E
:104D4000742073656E736F72203A28004174746525
:104D50006E64616E63652E00456E726F6C6C6D657E
:104D60006E742E0057616974696E6720666F7220D9
:104D700076616C69642066696E67657220746F2065
:104D8000656E726F6C6C20617320230046697273CC
:104D90007420696D6167652074616B656E0046699A
:104DA00072737420696D61676520636F6E766572DA
:104DB00074656400496D61676520746F6F206D656F
:104DC0007373790052656D6F76652066696E6765ED
:104DD0007200506C6163652073616D652066696E59
:104DE00067657220616761696E005365636F6E6409
:104DF00020696D6167652074616B656E0053656342
:104E00006F6E6420696D61676520636F6E76657291
:104E1000746564004372656174696E67206D6F64C8
:104E2000656C20666F72204944200046696E676594
:104E3000727072696E74206D6F64656C2063726548
:104E4000617465640053746F72696E67206D6F647E
:104E5000656C20666F72204944200073746F726520
:104E60002070206973200046696E676572707269F0
:104E70006E742073746F72656420737563636573F9
:104E80007366756C6C79006E6578742069642000B7
:104E9000456E726F6C6C6D656E74207375636365BF
:104EA000737366756C2100456E7465722055736569
:104EB000726E616D653A00456E7465722050617363
:104EC00073776F72643A00456E7465722041636156
:104ED00064656D696320596561723A00456E746559
:104EE00072204465706172746D656E743A00456E2F
:104EF00074657220526F6C6C204E756D6265723AEB
:104F0000004661696C656420656E726F6C6C6D65DE
:044F10006E742E008D
:107E0000112484B714BE81FFF0D085E080938100F7
:107E100082E08093C00088E18093C10086E0809377
:107E2000C20080E18093C4008EE0C9D0259A86E02C
:107E300020E33CEF91E0309385002093840096BBD3
:107E4000B09BFECF1D9AA8958150A9F7CC24DD24C4
:107E500088248394B5E0AB2EA1E19A2EF3E0BF2EE7
:107E6000A2D0813461F49FD0082FAFD0023811F036
:107E7000013811F484E001C083E08DD089C08234E0
:107E800011F484E103C0853419F485E0A6D080C0E4
:107E9000853579F488D0E82EFF2485D0082F10E0AE
:107EA000102F00270E291F29000F111F8ED06801E7
:107EB0006FC0863521F484E090D080E0DECF843638
:107EC00009F040C070D06FD0082F6DD080E0C81688
:107ED00080E7D80618F4F601B7BEE895C0E0D1E017
:107EE00062D089930C17E1F7F0E0CF16F0E7DF06D8
:107EF00018F0F601B7BEE89568D007B600FCFDCFD4
:107F0000A601A0E0B1E02C9130E011968C91119780
:107F100090E0982F8827822B932B1296FA010C0160
:107F200087BEE89511244E5F5F4FF1E0A038BF0790
:107F300051F7F601A7BEE89507B600FCFDCF97BE46
:107F4000E89526C08437B1F42ED02DD0F82E2BD052
:107F50003CD0F601EF2C8F010F5F1F4F84911BD097
:107F6000EA94F801C1F70894C11CD11CFA94CF0C13
:107F7000D11C0EC0853739F428D08EE10CD085E9AC
:107F80000AD08FE07ACF813511F488E018D01DD067
:107F900080E101D065CF982F8091C00085FFFCCF94
:107FA0009093C60008958091C00087FFFCCF809118
:107FB000C00084FD01C0A8958091C6000895E0E648
:107FC000F0E098E1908380830895EDDF803219F02E
:107FD00088E0F5DFFFCF84E1DECF1F93182FE3DFCA
:107FE0001150E9F7F2DF1F91089580E0E8DFEE27F6
:047FF000FF270994CA
:027FFE00040479
:00000001FF
